{
    "abi": [
        {
            "type": "constructor",
            "inputs": [
                {
                    "name": "name",
                    "type": "string",
                    "internalType": "string"
                },
                {
                    "name": "symbol",
                    "type": "string",
                    "internalType": "string"
                }
            ],
            "stateMutability": "nonpayable"
        },
        {
            "type": "function",
            "name": "approve",
            "inputs": [
                {
                    "name": "to",
                    "type": "address",
                    "internalType": "address"
                },
                {
                    "name": "tokenId",
                    "type": "uint256",
                    "internalType": "uint256"
                }
            ],
            "outputs": [],
            "stateMutability": "nonpayable"
        },
        {
            "type": "function",
            "name": "balanceOf",
            "inputs": [
                {
                    "name": "owner",
                    "type": "address",
                    "internalType": "address"
                }
            ],
            "outputs": [
                {
                    "name": "",
                    "type": "uint256",
                    "internalType": "uint256"
                }
            ],
            "stateMutability": "view"
        },
        {
            "type": "function",
            "name": "getApproved",
            "inputs": [
                {
                    "name": "tokenId",
                    "type": "uint256",
                    "internalType": "uint256"
                }
            ],
            "outputs": [
                {
                    "name": "",
                    "type": "address",
                    "internalType": "address"
                }
            ],
            "stateMutability": "view"
        },
        {
            "type": "function",
            "name": "isApprovedForAll",
            "inputs": [
                {
                    "name": "owner",
                    "type": "address",
                    "internalType": "address"
                },
                {
                    "name": "operator",
                    "type": "address",
                    "internalType": "address"
                }
            ],
            "outputs": [
                {
                    "name": "",
                    "type": "bool",
                    "internalType": "bool"
                }
            ],
            "stateMutability": "view"
        },
        {
            "type": "function",
            "name": "mint",
            "inputs": [
                {
                    "name": "to",
                    "type": "address",
                    "internalType": "address"
                },
                {
                    "name": "_tokenURI",
                    "type": "string",
                    "internalType": "string"
                }
            ],
            "outputs": [
                {
                    "name": "",
                    "type": "uint256",
                    "internalType": "uint256"
                }
            ],
            "stateMutability": "nonpayable"
        },
        {
            "type": "function",
            "name": "name",
            "inputs": [],
            "outputs": [
                {
                    "name": "",
                    "type": "string",
                    "internalType": "string"
                }
            ],
            "stateMutability": "view"
        },
        {
            "type": "function",
            "name": "owner",
            "inputs": [],
            "outputs": [
                {
                    "name": "",
                    "type": "address",
                    "internalType": "address"
                }
            ],
            "stateMutability": "view"
        },
        {
            "type": "function",
            "name": "ownerOf",
            "inputs": [
                {
                    "name": "tokenId",
                    "type": "uint256",
                    "internalType": "uint256"
                }
            ],
            "outputs": [
                {
                    "name": "",
                    "type": "address",
                    "internalType": "address"
                }
            ],
            "stateMutability": "view"
        },
        {
            "type": "function",
            "name": "renounceOwnership",
            "inputs": [],
            "outputs": [],
            "stateMutability": "nonpayable"
        },
        {
            "type": "function",
            "name": "safeTransferFrom",
            "inputs": [
                {
                    "name": "from",
                    "type": "address",
                    "internalType": "address"
                },
                {
                    "name": "to",
                    "type": "address",
                    "internalType": "address"
                },
                {
                    "name": "tokenId",
                    "type": "uint256",
                    "internalType": "uint256"
                }
            ],
            "outputs": [],
            "stateMutability": "nonpayable"
        },
        {
            "type": "function",
            "name": "safeTransferFrom",
            "inputs": [
                {
                    "name": "from",
                    "type": "address",
                    "internalType": "address"
                },
                {
                    "name": "to",
                    "type": "address",
                    "internalType": "address"
                },
                {
                    "name": "tokenId",
                    "type": "uint256",
                    "internalType": "uint256"
                },
                {
                    "name": "data",
                    "type": "bytes",
                    "internalType": "bytes"
                }
            ],
            "outputs": [],
            "stateMutability": "nonpayable"
        },
        {
            "type": "function",
            "name": "setApprovalForAll",
            "inputs": [
                {
                    "name": "operator",
                    "type": "address",
                    "internalType": "address"
                },
                {
                    "name": "approved",
                    "type": "bool",
                    "internalType": "bool"
                }
            ],
            "outputs": [],
            "stateMutability": "nonpayable"
        },
        {
            "type": "function",
            "name": "supportsInterface",
            "inputs": [
                {
                    "name": "interfaceId",
                    "type": "bytes4",
                    "internalType": "bytes4"
                }
            ],
            "outputs": [
                {
                    "name": "",
                    "type": "bool",
                    "internalType": "bool"
                }
            ],
            "stateMutability": "view"
        },
        {
            "type": "function",
            "name": "symbol",
            "inputs": [],
            "outputs": [
                {
                    "name": "",
                    "type": "string",
                    "internalType": "string"
                }
            ],
            "stateMutability": "view"
        },
        {
            "type": "function",
            "name": "tokenURI",
            "inputs": [
                {
                    "name": "tokenId",
                    "type": "uint256",
                    "internalType": "uint256"
                }
            ],
            "outputs": [
                {
                    "name": "",
                    "type": "string",
                    "internalType": "string"
                }
            ],
            "stateMutability": "view"
        },
        {
            "type": "function",
            "name": "transferFrom",
            "inputs": [
                {
                    "name": "from",
                    "type": "address",
                    "internalType": "address"
                },
                {
                    "name": "to",
                    "type": "address",
                    "internalType": "address"
                },
                {
                    "name": "tokenId",
                    "type": "uint256",
                    "internalType": "uint256"
                }
            ],
            "outputs": [],
            "stateMutability": "nonpayable"
        },
        {
            "type": "function",
            "name": "transferOwnership",
            "inputs": [
                {
                    "name": "newOwner",
                    "type": "address",
                    "internalType": "address"
                }
            ],
            "outputs": [],
            "stateMutability": "nonpayable"
        },
        {
            "type": "event",
            "name": "Approval",
            "inputs": [
                {
                    "name": "owner",
                    "type": "address",
                    "indexed": true,
                    "internalType": "address"
                },
                {
                    "name": "approved",
                    "type": "address",
                    "indexed": true,
                    "internalType": "address"
                },
                {
                    "name": "tokenId",
                    "type": "uint256",
                    "indexed": true,
                    "internalType": "uint256"
                }
            ],
            "anonymous": false
        },
        {
            "type": "event",
            "name": "ApprovalForAll",
            "inputs": [
                {
                    "name": "owner",
                    "type": "address",
                    "indexed": true,
                    "internalType": "address"
                },
                {
                    "name": "operator",
                    "type": "address",
                    "indexed": true,
                    "internalType": "address"
                },
                {
                    "name": "approved",
                    "type": "bool",
                    "indexed": false,
                    "internalType": "bool"
                }
            ],
            "anonymous": false
        },
        {
            "type": "event",
            "name": "BatchMetadataUpdate",
            "inputs": [
                {
                    "name": "_fromTokenId",
                    "type": "uint256",
                    "indexed": false,
                    "internalType": "uint256"
                },
                {
                    "name": "_toTokenId",
                    "type": "uint256",
                    "indexed": false,
                    "internalType": "uint256"
                }
            ],
            "anonymous": false
        },
        {
            "type": "event",
            "name": "MetadataUpdate",
            "inputs": [
                {
                    "name": "_tokenId",
                    "type": "uint256",
                    "indexed": false,
                    "internalType": "uint256"
                }
            ],
            "anonymous": false
        },
        {
            "type": "event",
            "name": "OwnershipTransferred",
            "inputs": [
                {
                    "name": "previousOwner",
                    "type": "address",
                    "indexed": true,
                    "internalType": "address"
                },
                {
                    "name": "newOwner",
                    "type": "address",
                    "indexed": true,
                    "internalType": "address"
                }
            ],
            "anonymous": false
        },
        {
            "type": "event",
            "name": "Transfer",
            "inputs": [
                {
                    "name": "from",
                    "type": "address",
                    "indexed": true,
                    "internalType": "address"
                },
                {
                    "name": "to",
                    "type": "address",
                    "indexed": true,
                    "internalType": "address"
                },
                {
                    "name": "tokenId",
                    "type": "uint256",
                    "indexed": true,
                    "internalType": "uint256"
                }
            ],
            "anonymous": false
        },
        {
            "type": "error",
            "name": "ERC721IncorrectOwner",
            "inputs": [
                {
                    "name": "sender",
                    "type": "address",
                    "internalType": "address"
                },
                {
                    "name": "tokenId",
                    "type": "uint256",
                    "internalType": "uint256"
                },
                {
                    "name": "owner",
                    "type": "address",
                    "internalType": "address"
                }
            ]
        },
        {
            "type": "error",
            "name": "ERC721InsufficientApproval",
            "inputs": [
                {
                    "name": "operator",
                    "type": "address",
                    "internalType": "address"
                },
                {
                    "name": "tokenId",
                    "type": "uint256",
                    "internalType": "uint256"
                }
            ]
        },
        {
            "type": "error",
            "name": "ERC721InvalidApprover",
            "inputs": [
                {
                    "name": "approver",
                    "type": "address",
                    "internalType": "address"
                }
            ]
        },
        {
            "type": "error",
            "name": "ERC721InvalidOperator",
            "inputs": [
                {
                    "name": "operator",
                    "type": "address",
                    "internalType": "address"
                }
            ]
        },
        {
            "type": "error",
            "name": "ERC721InvalidOwner",
            "inputs": [
                {
                    "name": "owner",
                    "type": "address",
                    "internalType": "address"
                }
            ]
        },
        {
            "type": "error",
            "name": "ERC721InvalidReceiver",
            "inputs": [
                {
                    "name": "receiver",
                    "type": "address",
                    "internalType": "address"
                }
            ]
        },
        {
            "type": "error",
            "name": "ERC721InvalidSender",
            "inputs": [
                {
                    "name": "sender",
                    "type": "address",
                    "internalType": "address"
                }
            ]
        },
        {
            "type": "error",
            "name": "ERC721NonexistentToken",
            "inputs": [
                {
                    "name": "tokenId",
                    "type": "uint256",
                    "internalType": "uint256"
                }
            ]
        },
        {
            "type": "error",
            "name": "OwnableInvalidOwner",
            "inputs": [
                {
                    "name": "owner",
                    "type": "address",
                    "internalType": "address"
                }
            ]
        },
        {
            "type": "error",
            "name": "OwnableUnauthorizedAccount",
            "inputs": [
                {
                    "name": "account",
                    "type": "address",
                    "internalType": "address"
                }
            ]
        }
    ],
    "bytecode": {
        "object": "0x608060405234801561000f575f5ffd5b5060405161170138038061170183398101604081905261002e9161017d565b3382825f61003c8382610266565b5060016100498282610266565b5050506001600160a01b03811661007957604051631e4fbdf760e01b81525f600482015260240160405180910390fd5b6100828161008f565b5050600160085550610320565b600780546001600160a01b038381166001600160a01b0319831681179093556040519116919082907f8be0079c531659141344cd1fd0a4f28419497f9722a3daafe3b4186f6b6457e0905f90a35050565b634e487b7160e01b5f52604160045260245ffd5b5f82601f830112610103575f5ffd5b81516001600160401b0381111561011c5761011c6100e0565b604051601f8201601f19908116603f011681016001600160401b038111828210171561014a5761014a6100e0565b604052818152838201602001851015610161575f5ffd5b8160208501602083015e5f918101602001919091529392505050565b5f5f6040838503121561018e575f5ffd5b82516001600160401b038111156101a3575f5ffd5b6101af858286016100f4565b602085015190935090506001600160401b038111156101cc575f5ffd5b6101d8858286016100f4565b9150509250929050565b600181811c908216806101f657607f821691505b60208210810361021457634e487b7160e01b5f52602260045260245ffd5b50919050565b601f82111561026157805f5260205f20601f840160051c8101602085101561023f5750805b601f840160051c820191505b8181101561025e575f815560010161024b565b50505b505050565b81516001600160401b0381111561027f5761027f6100e0565b6102938161028d84546101e2565b8461021a565b6020601f8211600181146102c5575f83156102ae5750848201515b5f19600385901b1c1916600184901b17845561025e565b5f84815260208120601f198516915b828110156102f457878501518255602094850194600190920191016102d4565b508482101561031157868401515f19600387901b60f8161c191681555b50505050600190811b01905550565b6113d48061032d5f395ff3fe608060405234801561000f575f5ffd5b5060043610610106575f3560e01c8063715018a61161009e578063b88d4fde1161006e578063b88d4fde14610215578063c87b56dd14610228578063d0def5211461023b578063e985e9c51461024e578063f2fde38b14610261575f5ffd5b8063715018a6146101e15780638da5cb5b146101e957806395d89b41146101fa578063a22cb46514610202575f5ffd5b806323b872dd116100d957806323b872dd1461018757806342842e0e1461019a5780636352211e146101ad57806370a08231146101c0575f5ffd5b806301ffc9a71461010a57806306fdde0314610132578063081812fc14610147578063095ea7b314610172575b5f5ffd5b61011d610118366004610ef4565b610274565b60405190151581526020015b60405180910390f35b61013a6102b9565b6040516101299190610f3d565b61015a610155366004610f4f565b610348565b6040516001600160a01b039091168152602001610129565b610185610180366004610f81565b61036f565b005b610185610195366004610fa9565b61037e565b6101856101a8366004610fa9565b61040c565b61015a6101bb366004610f4f565b61042b565b6101d36101ce366004610fe3565b610435565b604051908152602001610129565b61018561047a565b6007546001600160a01b031661015a565b61013a61048d565b610185610210366004610ffc565b61049c565b6101856102233660046110c0565b6104a7565b61013a610236366004610f4f565b6104bf565b6101d3610249366004611137565b6105ca565b61011d61025c366004611195565b610607565b61018561026f366004610fe3565b610634565b5f6001600160e01b031982166380ac58cd60e01b14806102a457506001600160e01b03198216635b5e139f60e01b145b806102b357506102b382610671565b92915050565b60605f80546102c7906111c6565b80601f01602080910402602001604051908101604052809291908181526020018280546102f3906111c6565b801561033e5780601f106103155761010080835404028352916020019161033e565b820191905f5260205f20905b81548152906001019060200180831161032157829003601f168201915b5050505050905090565b5f61035282610695565b505f828152600460205260409020546001600160a01b03166102b3565b61037a8282336106cd565b5050565b6001600160a01b0382166103ac57604051633250574960e11b81525f60048201526024015b60405180910390fd5b5f6103b88383336106da565b9050836001600160a01b0316816001600160a01b031614610406576040516364283d7b60e01b81526001600160a01b03808616600483015260248201849052821660448201526064016103a3565b50505050565b61042683838360405180602001604052805f8152506104a7565b505050565b5f6102b382610695565b5f6001600160a01b03821661045f576040516322718ad960e21b81525f60048201526024016103a3565b506001600160a01b03165f9081526003602052604090205490565b6104826107cc565b61048b5f6107f9565b565b6060600180546102c7906111c6565b61037a33838361084a565b6104b284848461037e565b61040633858585856108e8565b60606104ca82610695565b505f82815260066020526040812080546104e3906111c6565b80601f016020809104026020016040519081016040528092919081815260200182805461050f906111c6565b801561055a5780601f106105315761010080835404028352916020019161055a565b820191905f5260205f20905b81548152906001019060200180831161053d57829003601f168201915b505050505090505f61057660408051602081019091525f815290565b905080515f03610587575092915050565b8151156105b95780826040516020016105a1929190611215565b60405160208183030381529060405292505050919050565b6105c284610a10565b949350505050565b5f6105d36107cc565b60088054906001905f6105e68385611229565b909155506105f690508482610a80565b6106008184610a99565b9392505050565b6001600160a01b039182165f90815260056020908152604080832093909416825291909152205460ff1690565b61063c6107cc565b6001600160a01b03811661066557604051631e4fbdf760e01b81525f60048201526024016103a3565b61066e816107f9565b50565b5f6001600160e01b03198216632483248360e11b14806102b357506102b382610ae8565b5f818152600260205260408120546001600160a01b0316806102b357604051637e27328960e01b8152600481018490526024016103a3565b6104268383836001610b37565b5f828152600260205260408120546001600160a01b039081169083161561070657610706818486610c3b565b6001600160a01b03811615610740576107215f855f5f610b37565b6001600160a01b0381165f90815260036020526040902080545f190190555b6001600160a01b0385161561076e576001600160a01b0385165f908152600360205260409020805460010190555b5f8481526002602052604080822080546001600160a01b0319166001600160a01b0389811691821790925591518793918516917fddf252ad1be2c89b69c2b068fc378daa952ba7f163c4a11628f55a4df523b3ef91a4949350505050565b6007546001600160a01b0316331461048b5760405163118cdaa760e01b81523360048201526024016103a3565b600780546001600160a01b038381166001600160a01b0319831681179093556040519116919082907f8be0079c531659141344cd1fd0a4f28419497f9722a3daafe3b4186f6b6457e0905f90a35050565b6001600160a01b03821661087c57604051630b61174360e31b81526001600160a01b03831660048201526024016103a3565b6001600160a01b038381165f81815260056020908152604080832094871680845294825291829020805460ff191686151590811790915591519182527f17307eab39ab6107e8899845ad3d59bd9653f200f220920489ca2b5937696c31910160405180910390a3505050565b6001600160a01b0383163b15610a0957604051630a85bd0160e11b81526001600160a01b0384169063150b7a029061092a908890889087908790600401611248565b6020604051808303815f875af1925050508015610964575060408051601f3d908101601f1916820190925261096191810190611284565b60015b6109cb573d808015610991576040519150601f19603f3d011682016040523d82523d5f602084013e610996565b606091505b5080515f036109c357604051633250574960e11b81526001600160a01b03851660048201526024016103a3565b805181602001fd5b6001600160e01b03198116630a85bd0160e11b14610a0757604051633250574960e11b81526001600160a01b03851660048201526024016103a3565b505b5050505050565b6060610a1b82610695565b505f610a3160408051602081019091525f815290565b90505f815111610a4f5760405180602001604052805f815250610600565b80610a5984610c9f565b604051602001610a6a929190611215565b6040516020818303038152906040529392505050565b61037a828260405180602001604052805f815250610d2f565b5f828152600660205260409020610ab082826112e3565b506040518281527ff8e1a15aba9398e019f0b49df1a4fde98ee17ae345cb5f6b5e2c27f5033e8ce79060200160405180910390a15050565b5f6001600160e01b031982166380ac58cd60e01b1480610b1857506001600160e01b03198216635b5e139f60e01b145b806102b357506301ffc9a760e01b6001600160e01b03198316146102b3565b8080610b4b57506001600160a01b03821615155b15610c0c575f610b5a84610695565b90506001600160a01b03831615801590610b865750826001600160a01b0316816001600160a01b031614155b8015610b995750610b978184610607565b155b15610bc25760405163a9fbf51f60e01b81526001600160a01b03841660048201526024016103a3565b8115610c0a5783856001600160a01b0316826001600160a01b03167f8c5be1e5ebec7d5bd14f71427d1e84f3dd0314c0f7b2291e5b200ac8c7c3b92560405160405180910390a45b505b50505f90815260046020526040902080546001600160a01b0319166001600160a01b0392909216919091179055565b610c46838383610d46565b610426576001600160a01b038316610c7457604051637e27328960e01b8152600481018290526024016103a3565b60405163177e802f60e01b81526001600160a01b0383166004820152602481018290526044016103a3565b60605f610cab83610da7565b60010190505f8167ffffffffffffffff811115610cca57610cca611035565b6040519080825280601f01601f191660200182016040528015610cf4576020820181803683370190505b5090508181016020015b5f19016f181899199a1a9b1b9c1cb0b131b232b360811b600a86061a8153600a8504945084610cfe57509392505050565b610d398383610e7e565b610426335f8585856108e8565b5f6001600160a01b038316158015906105c25750826001600160a01b0316846001600160a01b03161480610d7f5750610d7f8484610607565b806105c25750505f908152600460205260409020546001600160a01b03908116911614919050565b5f8072184f03e93ff9f4daa797ed6e38ed64bf6a1f0160401b8310610de55772184f03e93ff9f4daa797ed6e38ed64bf6a1f0160401b830492506040015b6d04ee2d6d415b85acef81000000008310610e11576d04ee2d6d415b85acef8100000000830492506020015b662386f26fc100008310610e2f57662386f26fc10000830492506010015b6305f5e1008310610e47576305f5e100830492506008015b6127108310610e5b57612710830492506004015b60648310610e6d576064830492506002015b600a83106102b35760010192915050565b6001600160a01b038216610ea757604051633250574960e11b81525f60048201526024016103a3565b5f610eb383835f6106da565b90506001600160a01b03811615610426576040516339e3563760e11b81525f60048201526024016103a3565b6001600160e01b03198116811461066e575f5ffd5b5f60208284031215610f04575f5ffd5b813561060081610edf565b5f81518084528060208401602086015e5f602082860101526020601f19601f83011685010191505092915050565b602081525f6106006020830184610f0f565b5f60208284031215610f5f575f5ffd5b5035919050565b80356001600160a01b0381168114610f7c575f5ffd5b919050565b5f5f60408385031215610f92575f5ffd5b610f9b83610f66565b946020939093013593505050565b5f5f5f60608486031215610fbb575f5ffd5b610fc484610f66565b9250610fd260208501610f66565b929592945050506040919091013590565b5f60208284031215610ff3575f5ffd5b61060082610f66565b5f5f6040838503121561100d575f5ffd5b61101683610f66565b91506020830135801515811461102a575f5ffd5b809150509250929050565b634e487b7160e01b5f52604160045260245ffd5b5f5f67ffffffffffffffff84111561106357611063611035565b50604051601f19601f85018116603f0116810181811067ffffffffffffffff8211171561109257611092611035565b6040528381529050808284018510156110a9575f5ffd5b838360208301375f60208583010152509392505050565b5f5f5f5f608085870312156110d3575f5ffd5b6110dc85610f66565b93506110ea60208601610f66565b925060408501359150606085013567ffffffffffffffff81111561110c575f5ffd5b8501601f8101871361111c575f5ffd5b61112b87823560208401611049565b91505092959194509250565b5f5f60408385031215611148575f5ffd5b61115183610f66565b9150602083013567ffffffffffffffff81111561116c575f5ffd5b8301601f8101851361117c575f5ffd5b61118b85823560208401611049565b9150509250929050565b5f5f604083850312156111a6575f5ffd5b6111af83610f66565b91506111bd60208401610f66565b90509250929050565b600181811c908216806111da57607f821691505b6020821081036111f857634e487b7160e01b5f52602260045260245ffd5b50919050565b5f81518060208401855e5f93019283525090919050565b5f6105c261122383866111fe565b846111fe565b808201808211156102b357634e487b7160e01b5f52601160045260245ffd5b6001600160a01b03858116825284166020820152604081018390526080606082018190525f9061127a90830184610f0f565b9695505050505050565b5f60208284031215611294575f5ffd5b815161060081610edf565b601f82111561042657805f5260205f20601f840160051c810160208510156112c45750805b601f840160051c820191505b81811015610a09575f81556001016112d0565b815167ffffffffffffffff8111156112fd576112fd611035565b6113118161130b84546111c6565b8461129f565b6020601f821160018114611343575f831561132c5750848201515b5f19600385901b1c1916600184901b178455610a09565b5f84815260208120601f198516915b828110156113725787850151825560209485019460019092019101611352565b508482101561138f57868401515f19600387901b60f8161c191681555b50505050600190811b0190555056fea26469706673582212207fc5d11122d59277c325a8e6c8ba313df14b814d6d13dc290f1825ef4252f35b64736f6c634300081c0033",
        "linkReferences": {}
    },
    "methodIdentifiers": {
        "approve(address,uint256)": "095ea7b3",
        "balanceOf(address)": "70a08231",
        "getApproved(uint256)": "081812fc",
        "isApprovedForAll(address,address)": "e985e9c5",
        "mint(address,string)": "d0def521",
        "name()": "06fdde03",
        "owner()": "8da5cb5b",
        "ownerOf(uint256)": "6352211e",
        "renounceOwnership()": "715018a6",
        "safeTransferFrom(address,address,uint256)": "42842e0e",
        "safeTransferFrom(address,address,uint256,bytes)": "b88d4fde",
        "setApprovalForAll(address,bool)": "a22cb465",
        "supportsInterface(bytes4)": "01ffc9a7",
        "symbol()": "95d89b41",
        "tokenURI(uint256)": "c87b56dd",
        "transferFrom(address,address,uint256)": "23b872dd",
        "transferOwnership(address)": "f2fde38b"
    },
    "id": 24
}